:020000040000FA
:060000000A128A11E42F30
:100C0E000834043402340134831603178901831621
:100C1E00031387018312031387010800242EC730A4
:100C2E00F200192EF20B182E1C2E1D2E0130F00282
:100C3E000030031CF103F102242E70087104031D11
:100C4E00292E2A2E162E2B2E08000130F3000030EE
:100C5E00F4000130F5000030F6006430F900003089
:100C6E00FA00F701F801C32FC32F0130F70000304F
:100C7E00F800C32F0A128A110B260A128A110230AB
:100C8E00F7000030F800C32F73087404031D502EB4
:100C9E00512E622E75037604031D562E572E5C2E92
:100CAE000630F7000030F800622E0330F7000030F7
:100CBE00F800622E622E73037404031D672E682ED5
:100CCE00C32F75037604031D6D2E6E2E732E053005
:100CDE00F7000030F800C32F0430F7000030F800A2
:100CEE00C32FC32FC32F7B2E08308312031387000D
:100CFE007A08F1007908F0000A128A1115260A12F4
:100D0E008A1104308312031387007A08F1007908E0
:100D1E00F0000A128A1115260A128A110230831265
:100D2E00031387007A08F1007908F0000A128A117D
:100D3E0015260A128A1101308312031387007A08CE
:100D4E00F1007908F0000A128A1115260A128A118A
:100D5E007B2E7B2EC32FB32E0130831203138700FD
:100D6E007A08F1007908F0000A128A1115260A1283
:100D7E008A1102308312031387007A08F100790872
:100D8E00F0000A128A1115260A128A1104308312F3
:100D9E00031387007A08F1007908F0000A128A110D
:100DAE0015260A128A1108308312031387007A0857
:100DBE00F1007908F0000A128A1115260A128A111A
:100DCE00B32EB32EC32FEB2E0830831203138700DE
:100DDE007A08F1007908F0000A128A1115260A1213
:100DEE008A1109308312031387007A08F1007908FB
:100DFE00F0000A128A1115260A128A110130831286
:100E0E00031387007A08F1007908F0000A128A119C
:100E1E0015260A128A1103308312031387007A08EB
:100E2E00F1007908F0000A128A1115260A128A11A9
:100E3E0002308312031387007A08F1007908F0005C
:100E4E000A128A1115260A128A110630831203130A
:100E5E0087007A08F1007908F0000A128A11152627
:100E6E000A128A1104308312031387007A08F100E4
:100E7E007908F0000A128A1115260A128A110C300E
:100E8E008312031387007A08F1007908F0000A1222
:100E9E008A1115260A128A11EB2EEB2EC32F572F0D
:100EAE000C308312031387007A08F1007908F000E2
:100EBE000A128A1115260A128A110430831203139C
:100ECE0087007A08F1007908F0000A128A111526B7
:100EDE000A128A1106308312031387007A08F10072
:100EEE007908F0000A128A1115260A128A110230A8
:100EFE008312031387007A08F1007908F0000A12B2
:100F0E008A1115260A128A110330831203138700E1
:100F1E007A08F1007908F0000A128A1115260A12D1
:100F2E008A1101308312031387007A08F1007908C1
:100F3E00F0000A128A1115260A128A11093083123C
:100F4E00031387007A08F1007908F0000A128A115B
:100F5E0015260A128A1108308312031387007A08A5
:100F6E00F1007908F0000A128A1115260A128A1168
:100F7E00572F572FC32FC32F7808003A0319C82FA6
:100F8E00C32F7708003A03193C2E013A0319412E5C
:100F9E00033A03194B2E013A03197B2E073A031914
:100FAE00B32E013A0319EB2E033A0319572FC32F11
:100FBE00C32FC32F0A128A1100280A128A1107267C
:100FCE000A128A11A0000A128A1108260A128A1120
:100FDE00A1000A128A1109260A128A11A2000A1207
:100FEE008A110A260A128A11A30083010A128A1193
:020FFE002C2E97
:04400E00D4E0FFFFFC
:00000001FF
